:020000040800F2
:100000000010002071030008990300089B030008FA
:1000100000000000000000000000000000000000E0
:100020000000000000000000000000009D03000828
:1000300000000000000000009F03000815070008F2
:10004000A5030008A7030008A9030008AB030008E4
:10005000AD030008AF030008B1030008B3030008B4
:10006000A3030008B5030008790E0008B9030008CF
:10007000BB030008BD030008BF030008A30300087A
:10008000C1030008C3030008A3030008C503000858
:10009000C7030008C9030008CB030008CD0300080C
:1000A000CF030008D1030008D3030008810900082A
:1000B000D7030008D9030008A3030008DB030008E6
:1000C0001A4B1A4A126801210A431A60174B174A41
:1000D000526817490A405A60144B144A126815496D
:1000E0000A401A60114B114A126813490A401A60FB
:1000F0000E4B0E4A526811490A405A600B4B0B4A8C
:10010000D26A0F218A43DA62084B084A126B0C4903
:100110000A401A63054B054A526B01218A435A6310
:10012000024B00229A60C0467047C0460010024051
:100130000CB8FF08FFFFF6FEFFFFFBFFFFFFC0FF4D
:10014000ECFEFFFF00B585B000230393002302936C
:1001500000230193002300932A4B5B680C22134079
:100160000393039B042B07D0082B09D0002B33D11A
:10017000254B264A1A6033E0234B244A1A602FE0AD
:10018000204B5A68F0239B03134002931D4B5A687F
:1001900080235B0213400193029B9B0C023302936A
:1001A000184BDB6A0F22134001330093019A80231E
:1001B0005B029A420AD10099144801F0FFF803004B
:1001C0001A00029B5A43104B1A6009E0029B104A26
:1001D0005A430D4B1A6003E00B4B0C4A1A60C046A1
:1001E000084B5B681B090F2213400A4AD35C039338
:1001F000054B1A68039BDA40034B1A60C04605B0F2
:1002000000BDC046001002400000002000127A002D
:1002100000093D00DC030008354936480A1A02D0BF
:10022000072291438D46344934480A1A06D00722E2
:10023000914381F30988022282F3148830483149BE
:10024000314A00F043F831483149324A00F03EF873
:1002500031483249324A00F039F832483249334A9B
:1002600000F034F832483349334A00F02FF833486D
:100270003349344A00F02AF833483449344A00F00C
:1002800025F834483449002200F02BF8334834492B
:10029000002200F026F833483349091A082903DB05
:1002A00000220260043001601F482049884205D0C6
:1002B0000268043003B4904703BCF7E70020864689
:1002C000EC4600200021294A9047FEE7884207D0EB
:1002D000521A05D0037801300B700131013AF9D17F
:1002E0007047884202D002700130FAE77047000080
:1002F00000100020000F002000100020001000203F
:10030000401400080000002004000020EC03000856
:10031000EC030008FC130008401400080000002053
:1003200000000020FC130008FC130008FC13000868
:10033000FC130008FC130008FC130008FC13000861
:10034000FC130008401400084414000804000020B6
:100350000400002004000020800100208001002013
:10036000800100208001002080010020B9070008E2
:1003700004480549884385460448804704480549A0
:10038000016049E70010002007000000C1000008DC
:1003900008ED00E000000008FEE7FEE7FEE7FEE7EC
:1003A000FEE7FEE7FEE7FEE7FEE7FEE7FEE7FEE725
:1003B000FEE7FEE7FEE7FEE7FEE7FEE7FEE7FEE715
:1003C000FEE7FEE7FEE7FEE7FEE7FEE7FEE7FEE705
:0C03D000FEE7FEE7FEE7FEE7FEE7FEE7C3
:1003DC0000000000000000000102030406070809E9
:1003EC0030B583B0020000916B4607331A706B4630
:1003FC0007331B787F2B36D9324C6B4607331B786F
:10040C001A000F231340083B99082E4A6B460733FA
:10041C001B7818000F230340083B9B0806339B00F6
:10042C00D31804331B686A46073212781000032273
:10043C000240D200FF2090400200D2431A40009BA1
:10044C009B01FF2018406B4607331B781D000323CC
:10045C002B40DB00984003001A438B1D9B00E318D4
:10046C0004331A602BE0184C6B4607331B785BB2D5
:10047C009B0815496A460732127852B29208C0326C
:10048C00920052586946073109780800032101404F
:10049C00C900FF2088400100C9431140009A920115
:1004AC00FF2010406A4607321278150003222A40BA
:1004BC00D200904002000A43C0339B001A51C04640
:1004CC0003B030BD00ED00E000E100E000B583B00A
:1004DC000190019B013B0C4A934201D9012310E08E
:1004EC000A4B019A013A5A6001235B42032118001E
:1004FC00FFF776FF054B00229A60044B07221A6027
:10050C000023180003B000BDFFFFFF0010E000E067
:10051C0010B582B002006B4606331A8001AB0A1C80
:10052C001A806B4606331B88002B02D0022B00D09E
:10053C0046E0254B1B88002B41D0234B5B88642B5A
:10054C0002D9214B64225A801F4B9B881A001E4BE8
:10055C005B88D31A180000F029FD03000C0018006A
:10056C00210000F003FF03000C001800210000F034
:10057C004FFD041C144B1B88180000F003FD031CDA
:10058C00191C201C00F078FE031C1049181C00F0EC
:10059C0017FE031C1A1C0C4B063311040C0C198887
:1005AC0000200140081C211C01431980100C5A88A2
:1005BC0000210A40111C021C0A435A8000E0C0466C
:1005CC00C04602B010BDC046080000200000C84262
:1005DC00154B154A1268802149020A431A60C0461D
:1005EC00114B1A6880239B021340F9D00E4B0E4A14
:1005FC005268882149030A435A600B4B0A4A126815
:10060C00802149040A431A60C046074B1A688023AC
:10061C009B041340F9D0044B034A526802210A434D
:10062C005A60C0467047C046001002401D4B1D4A20
:10063C005269802189020A435A611A4B194AD269BC
:10064C0002210A43DA619023DB059022D20512685D
:10065C00A02109020A431A609023DB0501225242B1
:10066C009A609023DB059022D205126A88214905F5
:10067C000A431A620C4B2F229A620B4B0B4ADA621A
:10068C00094B54229A60084B094A9A61064B132273
:10069C001A62054B64229A63034B01221A60C0460E
:1006AC007047C046001002400004004010270000B4
:1006BC003178000082B002006B4606331A806B461C
:1006CC0006331B88084A934203D96B460633064A05
:1006DC001A80064B6A460632128803498A1A9A63B4
:1006EC00C04602B07047C04610270000000400400E
:1006FC00034B9B6B9BB2034AD31A9BB218007047F7
:10070C00000400401027000010B5264B5B881A002F
:10071C0064235343180000F035FC021C224B1B6869
:10072C00191C101C00F00AFE031E0FD01D4BDA889A
:10073C001B891B0413431A1C1B4B1B68191C101C14
:10074C0000F0A0FC031C1A1C174B1A60154B5B889D
:10075C001A0064235343180000F014FC021C124BC3
:10076C001B68191C101C00F0D1FD031E0DD00E4B84
:10077C0018680C4BDA881B891B041343191C00F0F6
:10078C007DFC031C1A1C084B1A60074B1B68181CB9
:10079C0000F02AFC03009BB21800FFF78BFFC04649
:1007AC0010BDC046080000200400002010B51B4BF3
:1007BC00FA2292001A80FFF70BFFFFF7BDFCFFF740
:1007CC0035FF164B1900012000F05CFB144B180090
:1007DC00FFF77CFE134B144A1A60124B134A1A6033
:1007EC00104B03225A600F4B114A9A60C0460D4BB6
:1007FC00DB68002BFBD10B4B0E4A1A60094B0D4AE0
:10080C001A60FFF775FF03006421180000F0D0FD9B
:10081C0003009AB2014B9A80F0E7C0460800002012
:10082C0080BB000000300040CCCC000055550000CF
:10083C00FF0F0000AAAA000082B002006B4607332B
:10084C001A70074B6A460732127811001F220A40B1
:10085C00012191400A001A60C04602B07047C046A0
:10086C0000E100E084B001900A006B4603331A707B
:10087C0003AB012252421A802DE0019B5A1C0192BB
:10088C001B7899B203AB03AA12884A401A800E2334
:10089C006B4400221A8019E003AB1B880122134021
:1008AC0008D003AB1B885B089AB203AB11494A40D2
:1008BC001A8004E003AB03AA128852081A800E2394
:1008CC006B441A880E236B4401321A800E236B443E
:1008DC001B88072BE0D96B4603331B786A4603321F
:1008EC00591E1170002BC8D103AB1B88180004B023
:1008FC007047C04601A0FFFF84B001900A006B4610
:10090C0002331A800E236B4400221A8026E00E2339
:10091C006B441B88019AD2180D236B4412781A7001
:10092C000E236B441B88019AD3180E226A4412883A
:10093C00013201998A1812781A700E236B441B88A5
:10094C000133019AD3180D226A4412781A700E23BF
:10095C006B440E226A44128802321A800E236B44B6
:10096C001A886B4602331B88013B9A42CFDBC04688
:10097C0004B0704710B584B0D14BDA6980231B01E9
:10098C00134000D125E2CE4B802212011A62CD4BCE
:10099C001B78002B00D119E2CA4B1B78023BDAB250
:1009AC000A246C44C84B11001800FFF75BFF0300CE
:1009BC0023800A236B441A88C24B1B78023BC24922
:1009CC00CB5C1800BF4B1B78013BBF49CB5C1B02B7
:1009DC0003439A4200D0F9E19023DB0501229A618E
:1009EC00B94B1A78B94B1A70B74B5A78B74B5A7037
:1009FC00B54B9B781B02B44AD27813439BB202AA24
:100A0C00DB181380B04B5B78102B00D9A7E19A0050
:100A1C00AF4BD3181B689F4602AB02AA1288520830
:100A2C001A8002AB1B88DAB26B46073307210A40E7
:100A3C001A7002AB02AA1288D2081A80A24B1B7938
:100A4C001B021AB2A04B5B791BB213431AB203AB55
:100A5C001A8003AB1B88072213409BB2002B05D1D5
:100A6C0003AB03AA1288D2081A8006E003AB1B88DA
:100A7C00DB089AB203AB01321A8003AB1B88DAB2E3
:100A8C00924B9A700F236B4400221A7034E00F23A0
:100A9C006B441B78DA1C8F4B1B6802A908880F214A
:100AAC006944097841185B181B7819006B460733A9
:100ABC001B7819410B0059B2864B186802AB1C8885
:100ACC000F236B441B78E3180133C3181B781C00ED
:100ADC006B4607331B780820C31A9C4023005BB27B
:100AEC000B435BB2D9B2794B99540F236B441A78F0
:100AFC000F236B4401321A700F236B441B789BB28B
:100B0C0003AA12889A42C2D803AB1B88DBB2033308
:100B1C00DAB20A246C446D4B11001800FFF7A2FEE8
:100B2C000300238003AB1B8803330A226A44128818
:100B3C00D1B2664AD15403AB1B8804330A226A44EF
:100B4C001288120A92B2D1B2604AD1542DE15E4B96
:100B5C005B799BB203AADB18138003AB1B88DAB258
:100B6C005A4B9A705B4B1A6802AB1B88D11803ABBB
:100B7C001A88594B180000F02FFC03AB1A88564BFF
:100B8C0011001800FFF7B8FE03AB1B88DBB2033370
:100B9C00DAB20A246C444D4B11001800FFF762FEC8
:100BAC000300238003AB1B8803330A226A44128898
:100BBC00D1B2464AD15403AB1B8804330A226A448F
:100BCC001288120A92B2D1B2404AD154EDE002AB73
:100BDC0002AA128852081A8002AB1B88DAB26B4642
:100BEC00073307210A401A7002AB02AA1288D208F6
:100BFC001A80354B1B79002B19D1364B1A6802AB76
:100C0C001B88D218334B196802AB1B88CB181B7886
:100C1C005BB269460731097801208840010049B26E
:100C2C00C94349B20B405BB2DBB2137016E0294BDF
:100C3C001A6802AB1B88D218264B196802AB1B88AA
:100C4C00CB181B7859B26B4607331B7801209840A0
:100C5C0003005BB20B435BB2DBB2137003AB03223A
:100C6C001A801949194B0822180000F0B5FB02AB89
:100C7C001B8801211800FFF74BFC96E0154B1A68F6
:100C8C0002AB1B88D318104A52791A70114B1A6890
:100C9C0002AB1B880133D3180B4A12791A7003ABC1
:100CAC0003221A800849094B0822180000F094FB13
:100CBC0002AB1B8802211800FFF72AFC75E0C04626
:100CCC00003801407C00002018000020800000202B
:100CDC00FC13000814000020830000205B4B5B79A0
:100CEC009BB203AADB18138003AB1A88584B110074
:100CFC001800FFF701FE574B1A6802AB1B88D0187F
:100D0C0003AB1A88524B190000F066FB4F49524B4B
:100D1C000622180000F060FB0A246C444E4B06219E
:100D2C001800FFF79FFD030023800A236B441B88E8
:100D3C00DAB2494B9A710A236B441B881B0A9BB28B
:100D4C00DAB2454BDA7103AB1A8802AB1B8811007F
:100D5C001800FFF7DDFB03AB03221A8025E03E4BA6
:100D6C005B78802252421343DAB23B4B5A703A4BB7
:100D7C0001229A700A246C44374B03211800FFF7A8
:100D8C0071FD030023800A236B441B88DAB2324BBB
:100D9C00DA700A236B441B881B0A9BB2DAB22E4B07
:100DAC001A7103AB00221A80C0462C4B2B4A1268D6
:100DBC0001218A431A60294B03AA128805325A6012
:100DCC00264B264A126801210A431A60244B002242
:100DDC001A70244BDB692022134033D0214B9B8C9F
:100DEC009AB26B4606331A701D4B1B78002B13D12D
:100DFC001D4B1B786A46063212789A4203D0194B67
:100E0C0004229A611EE0114B6A46063212781A705F
:100E1C00134B01221A7015E0114B1B7819000B4B68
:100E2C006A46063212785A540D4B1B78622B06D840
:100E3C000B4B1B780133DAB2094B1A7002E0084BEA
:100E4C0000221A70C04604B010BDC0461800002025
:100E5C001F00002014000020800000201C00024015
:100E6C007C0000200038014012000020044B20229E
:100E7C005A609023DB05802252029A61C04670476B
:100E8C000000024000B583B0020000916B460733AE
:100E9C001A702E4B6A46073212781A702C4B0022AD
:100EAC001A702C4B009A1A602B4B2B4A52692B4907
:100EBC000A435A61284B284A92698021C9010A4386
:100ECC009A619023DB059022D205126801210A4316
:100EDC001A609023DB059022D2051268A8210A43E0
:100EEC001A609023DB05012252429A609023DB05A5
:100EFC009022D205126A1A490A431A62194B1A4AED
:100F0C001A60184B194A5A60164BA122D2019A60EA
:100F1C00144B174ADA60134B1E225A61114B114ABB
:100F2C00126801210A431A60124B134ADA60114B02
:100F3C00124A9A600F4B124A1A600A20FFF77CFC87
:100F4C001B20FFF779FCC04603B000BD1200002047
:100F5C007C00002014000020001002400100020060
:100F6C0010110000003801402C20FF0700308000D9
:100F7C00881300001C00024080000020283801402B
:100F8C0092300000C20F12029D3201000CD001D52C
:100F9C00494202D4013A4900FCD5D205080A090697
:100FAC00494100D3012950417047C046004201D449
:100FBC00044A10474042F44600F006F80122D207DA
:100FCC0011436047D50F000842221201033A004238
:100FDC0008D002D4013A0018FCD51205C30A40050A
:100FEC00991870470021704741000DD2090E7F39C6
:100FFC000AD449421F3104D40002044A1043C840A9
:10100C00704701204042704700207047000000806C
:10101C004B1801225205DA4217D25B0D0722D2017E
:10102C009B1A0FD9FF2B13D2DB05CA0FD207134320
:10103C000903020D1143490AC200524100D9013182
:10104C00C8187047C80FC007704706D1004204D1BA
:10105C00C80F0002FF30C00570470123DB070A00F0
:10106C00C900400F084398431A4010435B0A1843C9
:10107C007047C0460122D207504005E00122D2073A
:10108C00514001E00122D20703004B403DD430B463
:10109C00431A01D2C01AC9184B004400240EFF2C6D
:1010AC0029D0244224D01B0E20D0E31A182B1DDC8F
:1010BC0009021143C40D000210435D4219350A00A8
:1010CC00AA40D940451801D36D080234013CE4050F
:1010DC00D209280A0121C9072D062A438A416041F9
:1010EC004100090EFF2901D3C00DC00530BC70476B
:1010FC00C00FC007FAE742001823DA41FF2AF5D0E7
:10110C007F2000010C300005F0E7A4465140431A43
:10111C0002D25340C01AC9184B00090211431B0ECE
:10112C004400240EFF2C3DD01B4244D05B421B19C3
:10113C00012B0CD31ED1C30D4002401A0CD3DB057E
:10114C000100400AC9059141584164467047C30DDE
:10115C0040024900401AF8D0002101314000FCD374
:10116C008C4204D95B1ADB05400AC018EDE7180A5B
:10117C00C007EAE7192BE8D801330C00D940DC4151
:10118C004C40012C4941C30D00021043441A01D4B8
:10119C00A4006408013BDB05200A24069441584155
:1011AC0064467047FF2B01D04102CED07F20000156
:1011BC000C300005C9E72442C7D10020C5E7C04662
:1011CC0030B405004D400124E407254042004B009B
:1011DC00120E32D01B0E3CD0FF2A33D0FF2B3FD047
:1011EC00D21800022043000A09022143090AC4B2A2
:1011FC004C43000AC3B24B43000A4843210A5B1814
:10120C00190A091801D44900013A080A7F3A2ADB65
:10121C00FE2A0FD2D2051C43240601D001242143FF
:10122C00C9B280295041802901D14008400028438F
:10123C0030BC7047FF20C005F9E71B0EFF2B0AD00E
:10124C002800F5E7400206D1FF2BF3D1490202D169
:10125C00F0E7FF2AF4D17F2000010C300005E7E70E
:10126C004902F8D1E6E7430200200132DFD15B12DC
:10127C000233DCD9D805DAE730B405004D4001243F
:10128C00E407254042004B00120E26D01B0E34D032
:10129C00FF2A2DD0FF2B35D0D21A00022043090291
:1012AC00214343084908A00D5B1A02D2013A5B00A6
:1012BC005B185B008B4200D35B1A4041F9D37F3241
:1012CC0022DDFF2A06D2D205C91A8B42504128438F
:1012DC0030BC7047FF20C005F9E71B0E03D0FF2B75
:1012EC0012D1490210D07F2000010C300005EFE72D
:1012FC004002F8D1FF2BEDD1F5E7FF2AEAD14002ED
:10130C00F1D1E7E74902EED12800E1E7012212060C
:10131C004300DA420FD84B00DA420CD802000A43E1
:10132C00520008D003D2884280414042704781422B
:10133C0080414042704700207047C046012212068F
:10134C004300DA420FD84B00DA420CD802000A43B1
:10135C00520008D003D281428041404270478842FB
:10136C0080414042704700207047C0464900490800
:10137C007047C046CA1751408B1A17D0C1174A4044
:10138C0004B44840411A48081A0000E05200824256
:10139C00FCD9002000E05208914200D3891A404148
:1013AC009A42F8D104BC5040801A70470020704714
:1013BC000A000FD00300400800E052008242FCD922
:1013CC00002000E05208934200D39B1A40418A420D
:1013DC00F8D17047002070478446002A05D00B785E
:1013EC00037001300131013AF9D160467047C046B3
:1013FC006A0D0008240A0008240A00085A0B000889
:10140C005A0B0008DA0B0008880C00086A0D00085B
:10141C006A0D00086A0D00086A0D00086A0D0008C4
:10142C006A0D00086A0D00086A0D00086A0D0008B4
:04143C00E80C0008B0
:0414400000127A001C
:04000005080003717B
:00000001FF
